{
  "_format": "hh-sol-artifact-1",
  "contractName": "TokenSwap",
  "sourceName": "contracts/ANKToken.sol",
  "abi": [
    {
      "inputs": [],
      "stateMutability": "nonpayable",
      "type": "constructor"
    },
    {
      "anonymous": false,
      "inputs": [
        {
          "indexed": true,
          "internalType": "address",
          "name": "tokenOwner",
          "type": "address"
        },
        {
          "indexed": true,
          "internalType": "address",
          "name": "spender",
          "type": "address"
        },
        {
          "indexed": false,
          "internalType": "uint256",
          "name": "tokens",
          "type": "uint256"
        }
      ],
      "name": "Approval",
      "type": "event"
    },
    {
      "anonymous": false,
      "inputs": [
        {
          "indexed": true,
          "internalType": "address",
          "name": "from",
          "type": "address"
        },
        {
          "indexed": true,
          "internalType": "address",
          "name": "to",
          "type": "address"
        },
        {
          "indexed": false,
          "internalType": "uint256",
          "name": "tokens",
          "type": "uint256"
        }
      ],
      "name": "Transfer",
      "type": "event"
    },
    {
      "inputs": [
        {
          "internalType": "address",
          "name": "_me",
          "type": "address"
        },
        {
          "internalType": "uint256",
          "name": "_tokenAmount",
          "type": "uint256"
        }
      ],
      "name": "Buy",
      "outputs": [],
      "stateMutability": "payable",
      "type": "function"
    },
    {
      "inputs": [
        {
          "internalType": "address",
          "name": "tokenOwner",
          "type": "address"
        },
        {
          "internalType": "address",
          "name": "spender",
          "type": "address"
        }
      ],
      "name": "allowance",
      "outputs": [
        {
          "internalType": "uint256",
          "name": "remaining",
          "type": "uint256"
        }
      ],
      "stateMutability": "view",
      "type": "function"
    },
    {
      "inputs": [
        {
          "internalType": "address",
          "name": "spender",
          "type": "address"
        },
        {
          "internalType": "uint256",
          "name": "tokens",
          "type": "uint256"
        }
      ],
      "name": "approve",
      "outputs": [
        {
          "internalType": "bool",
          "name": "success",
          "type": "bool"
        }
      ],
      "stateMutability": "nonpayable",
      "type": "function"
    },
    {
      "inputs": [
        {
          "internalType": "address",
          "name": "tokenOwner",
          "type": "address"
        }
      ],
      "name": "balanceOf",
      "outputs": [
        {
          "internalType": "uint256",
          "name": "balance",
          "type": "uint256"
        }
      ],
      "stateMutability": "view",
      "type": "function"
    },
    {
      "inputs": [
        {
          "internalType": "address",
          "name": "",
          "type": "address"
        }
      ],
      "name": "balances",
      "outputs": [
        {
          "internalType": "uint256",
          "name": "",
          "type": "uint256"
        }
      ],
      "stateMutability": "view",
      "type": "function"
    },
    {
      "inputs": [],
      "name": "decimal",
      "outputs": [
        {
          "internalType": "uint256",
          "name": "",
          "type": "uint256"
        }
      ],
      "stateMutability": "view",
      "type": "function"
    },
    {
      "inputs": [],
      "name": "founder",
      "outputs": [
        {
          "internalType": "address",
          "name": "",
          "type": "address"
        }
      ],
      "stateMutability": "view",
      "type": "function"
    },
    {
      "inputs": [],
      "name": "name",
      "outputs": [
        {
          "internalType": "string",
          "name": "",
          "type": "string"
        }
      ],
      "stateMutability": "view",
      "type": "function"
    },
    {
      "inputs": [],
      "name": "symbol",
      "outputs": [
        {
          "internalType": "string",
          "name": "",
          "type": "string"
        }
      ],
      "stateMutability": "view",
      "type": "function"
    },
    {
      "inputs": [],
      "name": "tokenPrice",
      "outputs": [
        {
          "internalType": "uint256",
          "name": "",
          "type": "uint256"
        }
      ],
      "stateMutability": "view",
      "type": "function"
    },
    {
      "inputs": [],
      "name": "totalSupply",
      "outputs": [
        {
          "internalType": "uint256",
          "name": "",
          "type": "uint256"
        }
      ],
      "stateMutability": "view",
      "type": "function"
    },
    {
      "inputs": [
        {
          "internalType": "address",
          "name": "to",
          "type": "address"
        },
        {
          "internalType": "uint256",
          "name": "tokens",
          "type": "uint256"
        }
      ],
      "name": "transfer",
      "outputs": [
        {
          "internalType": "bool",
          "name": "success",
          "type": "bool"
        }
      ],
      "stateMutability": "nonpayable",
      "type": "function"
    },
    {
      "inputs": [
        {
          "internalType": "address",
          "name": "sender",
          "type": "address"
        },
        {
          "internalType": "address",
          "name": "to",
          "type": "address"
        },
        {
          "internalType": "uint256",
          "name": "tokens",
          "type": "uint256"
        }
      ],
      "name": "transferFrom",
      "outputs": [
        {
          "internalType": "bool",
          "name": "success",
          "type": "bool"
        }
      ],
      "stateMutability": "nonpayable",
      "type": "function"
    },
    {
      "inputs": [
        {
          "internalType": "uint256",
          "name": "_newPrice",
          "type": "uint256"
        }
      ],
      "name": "updateTokenPrice",
      "outputs": [
        {
          "internalType": "uint256",
          "name": "",
          "type": "uint256"
        }
      ],
      "stateMutability": "nonpayable",
      "type": "function"
    }
  ],
  "bytecode": "0x60806040526040518060400160405280600781526020017f44414e4b55534800000000000000000000000000000000000000000000000000815250600090805190602001906200005192919062000199565b506040518060400160405280600381526020017f414e4b0000000000000000000000000000000000000000000000000000000000815250600190805190602001906200009f92919062000199565b506012600255348015620000b257600080fd5b50600254600a620000c49190620002a4565b6402540be400620000d69190620003e1565b60038190555033600460006101000a81548173ffffffffffffffffffffffffffffffffffffffff021916908373ffffffffffffffffffffffffffffffffffffffff16021790555060035460056000600460009054906101000a900473ffffffffffffffffffffffffffffffffffffffff1673ffffffffffffffffffffffffffffffffffffffff1673ffffffffffffffffffffffffffffffffffffffff1681526020019081526020016000208190555066038d7ea4c68000600781905550620004ed565b828054620001a7906200044c565b90600052602060002090601f016020900481019282620001cb576000855562000217565b82601f10620001e657805160ff191683800117855562000217565b8280016001018555821562000217579182015b8281111562000216578251825591602001919060010190620001f9565b5b5090506200022691906200022a565b5090565b5b80821115620002455760008160009055506001016200022b565b5090565b6000808291508390505b60018511156200029b5780860481111562000273576200027262000482565b5b6001851615620002835780820291505b80810290506200029385620004e0565b945062000253565b94509492505050565b6000620002b18262000442565b9150620002be8362000442565b9250620002ed7fffffffffffffffffffffffffffffffffffffffffffffffffffffffffffffffff8484620002f5565b905092915050565b600082620003075760019050620003da565b81620003175760009050620003da565b81600181146200033057600281146200033b5762000371565b6001915050620003da565b60ff84111562000350576200034f62000482565b5b8360020a9150848211156200036a576200036962000482565b5b50620003da565b5060208310610133831016604e8410600b8410161715620003ab5782820a905083811115620003a557620003a462000482565b5b620003da565b620003ba848484600162000249565b92509050818404811115620003d457620003d362000482565b5b81810290505b9392505050565b6000620003ee8262000442565b9150620003fb8362000442565b9250817fffffffffffffffffffffffffffffffffffffffffffffffffffffffffffffffff048311821515161562000437576200043662000482565b5b828202905092915050565b6000819050919050565b600060028204905060018216806200046557607f821691505b602082108114156200047c576200047b620004b1565b5b50919050565b7f4e487b7100000000000000000000000000000000000000000000000000000000600052601160045260246000fd5b7f4e487b7100000000000000000000000000000000000000000000000000000000600052602260045260246000fd5b60008160011c9050919050565b61125a80620004fd6000396000f3fe6080604052600436106100dd5760003560e01c806370a082311161007f57806395d89b411161005957806395d89b41146102ea578063a9059cbb14610315578063dd62ed3e14610352578063e3d4187f1461038f576100dd565b806370a082311461025757806376809ce3146102945780637ff9b596146102bf576100dd565b806323b872dd116100bb57806323b872dd1461017557806327e235e3146101b25780634d853ee5146101ef578063676c0d771461021a576100dd565b806306fdde03146100e2578063095ea7b31461010d57806318160ddd1461014a575b600080fd5b3480156100ee57600080fd5b506100f76103ab565b6040516101049190610efd565b60405180910390f35b34801561011957600080fd5b50610134600480360381019061012f9190610d56565b610439565b6040516101419190610ee2565b60405180910390f35b34801561015657600080fd5b5061015f610584565b60405161016c9190610f5f565b60405180910390f35b34801561018157600080fd5b5061019c60048036038101906101979190610d07565b61058a565b6040516101a99190610ee2565b60405180910390f35b3480156101be57600080fd5b506101d960048036038101906101d49190610ca2565b610718565b6040516101e69190610f5f565b60405180910390f35b3480156101fb57600080fd5b50610204610730565b6040516102119190610ec7565b60405180910390f35b34801561022657600080fd5b50610241600480360381019061023c9190610d92565b610756565b60405161024e9190610f5f565b60405180910390f35b34801561026357600080fd5b5061027e60048036038101906102799190610ca2565b610769565b60405161028b9190610f5f565b60405180910390f35b3480156102a057600080fd5b506102a96107b2565b6040516102b69190610f5f565b60405180910390f35b3480156102cb57600080fd5b506102d46107b8565b6040516102e19190610f5f565b60405180910390f35b3480156102f657600080fd5b506102ff6107be565b60405161030c9190610efd565b60405180910390f35b34801561032157600080fd5b5061033c60048036038101906103379190610d56565b61084c565b6040516103499190610ee2565b60405180910390f35b34801561035e57600080fd5b5061037960048036038101906103749190610ccb565b6109b5565b6040516103869190610f5f565b60405180910390f35b6103a960048036038101906103a49190610d56565b610a3c565b005b600080546103b890611126565b80601f01602080910402602001604051908101604052809291908181526020018280546103e490611126565b80156104315780601f1061040657610100808354040283529160200191610431565b820191906000526020600020905b81548152906001019060200180831161041457829003601f168201915b505050505081565b600081600560003373ffffffffffffffffffffffffffffffffffffffff1673ffffffffffffffffffffffffffffffffffffffff16815260200190815260200160002054101561048757600080fd5b6000821161049457600080fd5b81600660003373ffffffffffffffffffffffffffffffffffffffff1673ffffffffffffffffffffffffffffffffffffffff16815260200190815260200160002060008573ffffffffffffffffffffffffffffffffffffffff1673ffffffffffffffffffffffffffffffffffffffff168152602001908152602001600020819055508273ffffffffffffffffffffffffffffffffffffffff163373ffffffffffffffffffffffffffffffffffffffff167f8c5be1e5ebec7d5bd14f71427d1e84f3dd0314c0f7b2291e5b200ac8c7c3b925846040516105729190610f5f565b60405180910390a36001905092915050565b60035481565b600081600660008673ffffffffffffffffffffffffffffffffffffffff1673ffffffffffffffffffffffffffffffffffffffff16815260200190815260200160002060008573ffffffffffffffffffffffffffffffffffffffff1673ffffffffffffffffffffffffffffffffffffffff16815260200190815260200160002054101561061557600080fd5b81600560008673ffffffffffffffffffffffffffffffffffffffff1673ffffffffffffffffffffffffffffffffffffffff16815260200190815260200160002054101561066157600080fd5b81600560008673ffffffffffffffffffffffffffffffffffffffff1673ffffffffffffffffffffffffffffffffffffffff16815260200190815260200160002060008282546106b09190611077565b9250508190555081600560008573ffffffffffffffffffffffffffffffffffffffff1673ffffffffffffffffffffffffffffffffffffffff16815260200190815260200160002060008282546107069190610f96565b92505081905550600190509392505050565b60056020528060005260406000206000915090505481565b600460009054906101000a900473ffffffffffffffffffffffffffffffffffffffff1681565b6000816007819055506007549050919050565b6000600560008373ffffffffffffffffffffffffffffffffffffffff1673ffffffffffffffffffffffffffffffffffffffff168152602001908152602001600020549050919050565b60025481565b60075481565b600180546107cb90611126565b80601f01602080910402602001604051908101604052809291908181526020018280546107f790611126565b80156108445780601f1061081957610100808354040283529160200191610844565b820191906000526020600020905b81548152906001019060200180831161082757829003601f168201915b505050505081565b600081600560003373ffffffffffffffffffffffffffffffffffffffff1673ffffffffffffffffffffffffffffffffffffffff16815260200190815260200160002054101561089a57600080fd5b81600560008573ffffffffffffffffffffffffffffffffffffffff1673ffffffffffffffffffffffffffffffffffffffff16815260200190815260200160002060008282546108e99190610f96565b9250508190555081600560003373ffffffffffffffffffffffffffffffffffffffff1673ffffffffffffffffffffffffffffffffffffffff168152602001908152602001600020600082825461093f9190611077565b925050819055508273ffffffffffffffffffffffffffffffffffffffff163373ffffffffffffffffffffffffffffffffffffffff167fddf252ad1be2c89b69c2b068fc378daa952ba7f163c4a11628f55a4df523b3ef846040516109a39190610f5f565b60405180910390a36001905092915050565b6000600660008473ffffffffffffffffffffffffffffffffffffffff1673ffffffffffffffffffffffffffffffffffffffff16815260200190815260200160002060008373ffffffffffffffffffffffffffffffffffffffff1673ffffffffffffffffffffffffffffffffffffffff16815260200190815260200160002054905092915050565b60075481610a4a919061101d565b341015610a8c576040517f08c379a0000000000000000000000000000000000000000000000000000000008152600401610a8390610f1f565b60405180910390fd5b600460009054906101000a900473ffffffffffffffffffffffffffffffffffffffff1673ffffffffffffffffffffffffffffffffffffffff163373ffffffffffffffffffffffffffffffffffffffff161415610b1d576040517f08c379a0000000000000000000000000000000000000000000000000000000008152600401610b1490610f3f565b60405180910390fd5b80600560008473ffffffffffffffffffffffffffffffffffffffff1673ffffffffffffffffffffffffffffffffffffffff1681526020019081526020016000206000828254610b6c9190610f96565b925050819055508060056000600460009054906101000a900473ffffffffffffffffffffffffffffffffffffffff1673ffffffffffffffffffffffffffffffffffffffff1673ffffffffffffffffffffffffffffffffffffffff1681526020019081526020016000206000828254610be49190611077565b92505081905550600460009054906101000a900473ffffffffffffffffffffffffffffffffffffffff1673ffffffffffffffffffffffffffffffffffffffff166108fc670de0b6b3a764000060075484610c3e919061101d565b610c489190610fec565b9081150290604051600060405180830381858888f19350505050158015610c73573d6000803e3d6000fd5b505050565b600081359050610c87816111f6565b92915050565b600081359050610c9c8161120d565b92915050565b600060208284031215610cb457600080fd5b6000610cc284828501610c78565b91505092915050565b60008060408385031215610cde57600080fd5b6000610cec85828601610c78565b9250506020610cfd85828601610c78565b9150509250929050565b600080600060608486031215610d1c57600080fd5b6000610d2a86828701610c78565b9350506020610d3b86828701610c78565b9250506040610d4c86828701610c8d565b9150509250925092565b60008060408385031215610d6957600080fd5b6000610d7785828601610c78565b9250506020610d8885828601610c8d565b9150509250929050565b600060208284031215610da457600080fd5b6000610db284828501610c8d565b91505092915050565b610dc4816110ab565b82525050565b610dd3816110bd565b82525050565b6000610de482610f7a565b610dee8185610f85565b9350610dfe8185602086016110f3565b610e07816111e5565b840191505092915050565b6000610e1f602a83610f85565b91507f596f7520646f6e2774206861766520656e6f75676820657468657220696e207960008301527f6f75722077616c6c6574000000000000000000000000000000000000000000006020830152604082019050919050565b6000610e85601e83610f85565b91507f4f776e65722063616e27742063616c6c20746869732066756e6374696f6e00006000830152602082019050919050565b610ec1816110e9565b82525050565b6000602082019050610edc6000830184610dbb565b92915050565b6000602082019050610ef76000830184610dca565b92915050565b60006020820190508181036000830152610f178184610dd9565b905092915050565b60006020820190508181036000830152610f3881610e12565b9050919050565b60006020820190508181036000830152610f5881610e78565b9050919050565b6000602082019050610f746000830184610eb8565b92915050565b600081519050919050565b600082825260208201905092915050565b6000610fa1826110e9565b9150610fac836110e9565b9250827fffffffffffffffffffffffffffffffffffffffffffffffffffffffffffffffff03821115610fe157610fe0611158565b5b828201905092915050565b6000610ff7826110e9565b9150611002836110e9565b92508261101257611011611187565b5b828204905092915050565b6000611028826110e9565b9150611033836110e9565b9250817fffffffffffffffffffffffffffffffffffffffffffffffffffffffffffffffff048311821515161561106c5761106b611158565b5b828202905092915050565b6000611082826110e9565b915061108d836110e9565b9250828210156110a05761109f611158565b5b828203905092915050565b60006110b6826110c9565b9050919050565b60008115159050919050565b600073ffffffffffffffffffffffffffffffffffffffff82169050919050565b6000819050919050565b60005b838110156111115780820151818401526020810190506110f6565b83811115611120576000848401525b50505050565b6000600282049050600182168061113e57607f821691505b60208210811415611152576111516111b6565b5b50919050565b7f4e487b7100000000000000000000000000000000000000000000000000000000600052601160045260246000fd5b7f4e487b7100000000000000000000000000000000000000000000000000000000600052601260045260246000fd5b7f4e487b7100000000000000000000000000000000000000000000000000000000600052602260045260246000fd5b6000601f19601f8301169050919050565b6111ff816110ab565b811461120a57600080fd5b50565b611216816110e9565b811461122157600080fd5b5056fea2646970667358221220a5f3ed443fd74aad9b7fe82f70d4e8f037341ed25eda8e409ecdf6741a25a21964736f6c63430008000033",
  "linkReferences": {},
  "deployedLinkReferences": {}
}